:020000040000FA
:1000000090AA040000000000B2AA0000B2AA0000FA
:10001000B2AA0000B2AA0000B2AA0000B2AA000070
:10002000B2AA0000B2AA0000B2AA0000B2AA000060
:10003000B2AA0000B2AA0000B2AA0000B2AA000050
:10004000B2AA0000B2AA0000B2AA0000B2AA000040
:10005000B2AA0000B2AA0000B2AA0000B2AA000030
:10006000B2AA0000B2AA0000B2AA0000B2AA000020
:10007000B2AA0000B2AA0000B2AA0000B2AA000010
:10008000B2AA0000B2AA0000B2AA0000B2AA000000
:10009000B2AA0000B2AA0000B2AA0000B2AA0000F0
:1000A000B2AA0000B2AA0000B2AA0000B2AA0000E0
:1000B000B2AA0000B2AA0000B2AA0000B2AA0000D0
:1000C000B2AA0000B2AA0000B2AA0000B2AA0000C0
:1000D000B2AA0000B2AA0000B2AA0000B2AA0000B0
:1000E000B2AA0000B2AA0000B2AA0000B2AA0000A0
:1000F000B2AA0000B2AA0000B2AA0000B2AA000090
:10010000B2AA0000B2AA0000B2AA0000B2AA00007F
:10011000B2AA0000B2AA0000B2AA0000B2AA00006F
:10012000B2AA0000B2AA0000B2AA0000B2AA00005F
:10013000B2AA0000B2AA0000B2AA0000B2AA00004F
:10014000B2AA0000B2AA0000B2AA0000B2AA00003F
:10015000B2AA0000B2AA0000B2AA0000B2AA00002F
:10016000B2AA0000B2AA0000B2AA0000B2AA00001F
:10017000B2AA0000B2AA0000B2AA0000B2AA00000F
:10018000B2AA0000B2AA0000B2AA0000B2AA0000FF
:10019000B2AA0000B2AA0000B2AA0000B2AA0000EF
:1001A000B2AA0000B2AA0000B2AA0000B2AA0000DF
:1001B000B2AA0000B2AA0000B2AA0000B2AA0000CF
:1001C000B2AA0000B2AA0000B2AA0000B2AA0000BF
:1001D000B2AA0000B2AA0000B2AA0000B2AA0000AF
:1001E000B2AA0000B2AA0000B2AA0000B2AA00009F
:1001F000B2AA0000B2AA0000B2AA0000B2AA00008F
:0102000000FD
:0102020000FB
:0102040000F9
:0102060000F7
:10020800B2AA0000B2AA0000B2AA0000B2AA000076
:10021800B2AA0000B2AA0000B2AA0000B2AA000066
:10022800B2AA0000B2AA0000B2AA0000B2AA000056
:10023800B2AA0000B2AA0000B2AA0000B2AA000046
:10024800B2AA0000B2AA0000B2AA0000B2AA000036
:10025800B2AA0000B2AA0000B2AA0000B2AA000026
:10026800B2AA0000B2AA0000B2AA0000B2AA000016
:10027800B2AA0000B2AA0000B2AA0000B2AA000006
:10028800B2AA0000B2AA0000B2AA0000B2AA0000F6
:10029800B2AA0000B2AA0000B2AA0000B2AA0000E6
:1002A800B2AA0000B2AA0000B2AA0000B2AA0000D6
:1002B800B2AA0000B2AA0000B2AA0000B2AA0000C6
:1002C800B2AA0000B2AA0000B2AA0000B2AA0000B6
:1002D800B2AA0000B2AA0000B2AA0000B2AA0000A6
:1002E800B2AA0000B2AA0000B2AA0000B2AA000096
:1002F800B2AA0000B2AA0000B2AA0000B2AA000086
:10030800B2AA0000B2AA0000B2AA0000B2AA000075
:10031800B2AA0000B2AA0000B2AA0000B2AA000065
:10032800B2AA0000B2AA0000B2AA0000B2AA000055
:10033800B2AA0000B2AA0000B2AA0000B2AA000045
:10034800B2AA0000B2AA0000B2AA0000B2AA000035
:10035800B2AA0000B2AA0000B2AA0000B2AA000025
:10036800B2AA0000B2AA0000B2AA0000B2AA000015
:10037800B2AA0000B2AA0000B2AA0000B2AA000005
:10038800B2AA0000B2AA0000B2AA0000B2AA0000F5
:10039800B2AA0000B2AA0000B2AA0000B2AA0000E5
:1003A800B2AA0000B2AA0000B2AA0000B2AA0000D5
:1003B800B2AA0000B2AA0000B2AA0000B2AA0000C5
:1003C800B2AA0000B2AA0000B2AA0000B2AA0000B5
:1003D800B2AA0000B2AA0000B2AA0000B2AA0000A5
:1003E800B2AA0000B2AA0000B2AA0000B2AA000095
:1003F800B2AA0000B2AA00004FEE20000E7F220031
:100408000E01880000000000000120002002880082
:100418000C000700A0C22100010020000F00070007
:10042800000020000000E00002003200000002008E
:10043800000000005C290200000000000040DA0013
:100448000000FE00600620000000E000020032000C
:10045800002020009001880000000600A10288000A
:10046800800078000000EB001A003700E2804000AE
:1004780054A0B4009101BA00E280400054A0B40036
:100488009102BA00E280400054A0B4000002EB00E0
:10049800472BDE00F507B200A6018800602CE100BA
:1004A80008003A000049EB000201E80002003900A8
:1004B8003420EC0002F0A0008301E900F9FF3E00BF
:1004C800040037006128E100010032000082EB00DF
:1004D800040007001101BA000200E000E3FF3A003F
:1004E8000000060004D0A300E20F49001C003900F8
:1004F800810278003549BA000201E800020039009B
:100508003420EC0002F0A0008301E9000F00320063
:100518002549BA000201E800020039003420EC0045
:1005280002F0A0008301E900080032000400E000A6
:100538000600320015C9BA000201E80002003900BD
:100548003420EC0002F0A0008301E9008180E8007B
:1005580054A0B4000300E000E2FF3A0000000600E7
:100568009102BA00055978008301E900F7FF3200CB
:10057800C82ADE00055978008301E900F3FF32003C
:100588000400E000F1FF320011D9BA00EEFF370095
:100598000000000000000000000000000000000053
:1005A8000000000000000000000000000000000043
:1005B8000000000000000000000000000000000033
:1005C8000000000000000000000000000000000023
:1005D8000000000000000000000000000000000013
:1005E8000000000000000000000000000000000003
:1005F80000000000000000000000000000000000F3
:1006080000000000000000000000000000000000E2
:1006180000000000000000000000000000000000D2
:1006280000000000000000000000000000000000C2
:1006380000000000000000000000000000000000B2
:1006480000000000000000000000000000000000A2
:100658000000000000000000000000000000000092
:100668000000000000000000000000000000000082
:100678000000000000000000000000000000000072
:100688000000000000000000000000000000000062
:100698000000000000000000000000000000000052
:1006A8000000000000000000000000000000000042
:1006B8000000000000000000000000000000000032
:1006C8000000000000000000000000000000000022
:1006D8000000000000000000000000000000000012
:1006E8000000000000000000000000000000000002
:1006F80000000000000000000000000000000000F2
:1007080000000000000000000000000000000000E1
:1007180000000000000000000000000000000000D1
:100728000040DA000000FE00839F68000100E0003E
:1007380002003D0060001000E08018000300E000A7
:1007480002003D0060011100E0811900050007006A
:100758004F00E00002003B0060001000E08018003D
:10076800000006006022B800060220000000D00049
:100778008180D2000482D2008582D2000000A000CD
:100788000202520083825A00030031000202420032
:1007980083824A000000A1000603E900F3FF3A0043
:1007A80000000600E68747008E1F7800D0BF9F0034
:1007B80066875700012F78000E0037005FBB97004F
:1007C80016407800EFBA9700154278000201E90058
:1007D800844F5000040032000080FB000482FB00BC
:1007E80004005000060037000603E800D6BF9F004B
:1007F800050FE800E00F5100F0FF3A000200780012
:100808004F0778006F00B100000006000002780072
:1008180002003700315A78000201E900E00F510068
:10082800FCFF3A0000000600000278008042EB005E
:10083800B4CF1200FDFF3A000080EA000000420039
:100848000000060041420000434400004546000005
:1008580047480000494A00004B4C00004D4E00003C
:100868004F500000515200005354000055560000EC
:1008780057580000595A0000616200006364000084
:100888006566000067680000696A00006B6C00001C
:100898006D6E00006F7000007172000073740000CC
:1008A8007576000077780000797A00003031000012
:1008B8003233000034350000363700003839000084
:1008C8002B2F0000000000000200000001000000C3
:1008D8001011000012130000203000000404000072
:1008E8000404000010100000746500007374000018
:1008F800696E0000672E00002E2E00000000000028
:1009080070070000720700007407000076070000F7
:10091800040022003531800005026200E00F520019
:1009280001003A008A12070027E6A8000000060026
:10093800040022003531800005026200E00F5200F9
:1009480001003A008212070027E6A900000006000D
:10095800303180004F00DE00000006007527A90036
:10096800040022003531800005026200E00F5200C9
:1009780001003A00761207002666EF002746A90014
:1009880023E6A90023C6A9000000060090487800C5
:10099800104290009440980020429000A440980093
:1009A80030429000B440980040429000C440980003
:1009B80050409000D04098000000060062002000DF
:1009C80078FF070000000600FCFF070000F0A70002
:1009D8000000EA000000E9004F00DE000000060009
:1009E80000427800E342620007003A000483FB00FB
:1009F80045062000110009000583D80010002000DA
:100A0800E08F500009003A000482FB00051920001D
:100A1800110009000502D8000102780004F0A700BF
:100A28000402EA000400E9004F00DE0000000600AE
:100A3800EE874700889FBE008A9FBE008C9FBE003D
:100A48008E1F78000006BE00BD4290008582FB0024
:100A58003C4290000482FB0004825200CFA2DE00D8
:100A680006E1200006ABB90008E120000822B80022
:100A7800850243005D4490000884FB005C439000BD
:100A88000683FB0006045400CFC4DE0004024400C1
:100A980085824C00CD4390008783FB004C43900037
:100AA8000683FB0006835300C703200007B3B90081
:100AB800CFB3DE000404430085844B001D42900040
:100AC8001C4590008A4F52000F003A00AD4290003A
:100AD8008582FB002C4290000482FB0004825200B5
:100AE800CFA2DE000618250006ABB90006034200B7
:100AF800071825000722B8008502430008044200B1
:100B080089844A00570037008A4F52002A0036006D
:100B18008445780014C0B300030037008A45780084
:100B28000445780000C2EB000402FB00CFA2DE00FF
:100B380007E82D0007ABB9008002200000A0B9002B
:100B4800860340000403780000E82D000021B80067
:100B5800B2B79F00C3B79F0083814300C3B79F000C
:100B680000D0280000A8B9007202200002A1B90034
:100B78008003410000D028000021B800D2B79F00B0
:100B8800E3B79F0083814300E3B79F000018250067
:100B980000A8B90000024200051825000530B80079
:100BA800F0B79F0081BF9F008100420081BF9F0076
:100BB8007FB79700030037008A4F5200D7FF3900EC
:100BC80028003700E24F550012003A001C40780018
:100BD80083FF0700D401200005002000E00F50002B
:100BE80002003200C401200005002000FFB0970079
:100BF80001ABB9000FB997000490B9000600400096
:100C08000E22B800850240000804420089844A0088
:100C180011003700E94F550006003200E44F550037
:100C280004003200E64F550002003200EB4F550039
:100C380005003A005FB29700EFB29700080442003F
:100C480089844A00040037003FB39700CFB3970068
:100C58000804430089844B000A45E8008ACF550000
:100C6800D8FF3E001C4578001D427800844F55008F
:100C7800070031008445780014C0B300070037002E
:100C88008A4578000445780000C2EB00030037006D
:100C9800844F5500FAFF3E00190037000400FB009E
:100CA800CF80DE00F0B79F0081BF9F00000678006C
:100CB8000A4078004AFF070004202E00F51D200096
:100CC800E00F50000200320004302000C52C210043
:100CD800FFB0970001ABB9000FB997000490B900B5
:100CE800060340000C22B8008502430008044200B5
:100CF80089844A000A45E8008ACF5500ECFF3E0087
:100D08000800BE004F0778004F06BE004F05BE0022
:100D18004F04BE00EF00B100000006000082FB0097
:100D28004422DE006A22B9006F406000044040009F
:100D380000000600889FBE0000047800143180007F
:100D48000480A1000490A0001431880009318000BB
:100D58004848DE00F1FF0700104498000940780079
:100D6800EEFF070020449800093180004848DE0063
:100D7800EAFF07006044980009407800E7FF070091
:100D880030449800093180004848DE00E3FF07003E
:100D98004044980009407800E0FF0700504498005C
:100DA8004F04BE0000000600889FBE0000047800C3
:100DB800003020002626B70020318000D7FF07002A
:100DC800004C7800293180004848DE00D3FF070036
:100DD8001044980009407800D0FF0700204498008C
:100DE800293180004848DE00CCFF070060449800A5
:100DF80009407800C9FF0700304498002931800075
:100E08004848DE00C5FF07004044980009407800C4
:100E1800C2FF0700504498004F04BE0000000600BF
:100E28000800FA00881F7800000478006A805700DC
:100E3800DDFF070008007800DBFF07008800780066
:100E48006A805700E0FE0700E00F500002003A00F9
:100E580008007800D4FF07004F0478000080FA00EB
:100E6800000006000800FA00881F780000047800D7
:100E78006A805700EAFF0700880078006A805700F8
:100E8800C2FE07004F0478000080FA000000060048
:100E98000080FB00A4002000110009000480D80095
:100EA8004400DD000140700000000600889FBE007D
:100EB8008A1F780000047800A5FE07000005780066
:100EC800040022003531800005026200E00F520064
:100ED80001003A001E11070095FE070000302000AF
:100EE8002626B70018407800E9FF07000080FB00BD
:100EF8002031880018409000E5FF07008044780002
:100F080028409000E2FF0700C84CDD000080FB008D
:100F1800808474002931880068409000DCFF070055
:100F28008044780038409000D9FF0700C84CDD00A5
:100F38000080FB00808474002931880048409000BC
:100F4800D3FF07008044780058409000D0FF070086
:100F5800C84CDD000080FB008084740029318800C3
:100F6800E00F55000100320069FE07004F057800C8
:100F78004F04BE00000006003600F800809FBE0047
:100F8800829FBE00849FBE00869FBE0034318000D1
:100F98000480A1000490A00034318800143180003E
:100FA8000480A1000490A00014318800243180003E
:100FB800043180002131800000318000253180001B
:100FC8000631800005426B00D42EEF000780200018
:100FD8003231800082836300E08F530002003A00C0
:100FE80017002000A7768800EF03620019003A0076
:100FF800E04F520015003A004833DE00C82ADE00F0
:1010080085426B006F8262000D003A00E0CF52000B
:1010180008003A0080CF500003003A006400200026
:10102800A47688000B00370054002000A4768800BE
:101038000800370044002000A47688000500370027
:1010480034002000A4768800020037002400200025
:10105800A476880090768000E00F500001003200EE
:10106800B00C07008BC0A9004F03BE004F02BE00A2
:101078004F01BE004F00BE003600F90000400600D8
:10108800A076800000000600889FBE000004BE0015
:10109800040022003031800000026200E00F52009C
:1010A80001003A00AA10070023E6A90023C6A800F9
:1010B800143180000480A1000490A000143188003D
:1010C80010C0B30072FF07000080FB004802DD007B
:1010D80000007200003188000040EB006CFF070040
:1010E8000080FB004802DD0000007200003188002B
:1010F8000031880010C0B30022E6B7006F04640016
:101108004A44DD00F43F2C001531800005026200DE
:10111800080472001831880023E6A8009976880030
:10112800140680000480A0000490A10004A0A1007F
:10113800140688009BC0A8004F04BE0000000600EB
:10114800040022003531800005026200E00F5200E1
:1011580001003A007E100700FF3FFC0023E6A900CB
:10116800D22EEF000000FC00000006000400FA0088
:101178006022B800E4BF9F00F5BF9F000620210051
:10118800068BB900A40720000482B90006024200B9
:10119800052021000500B80081004200823E2000A1
:1011A800030020006FFD07006FBA9700FFBA970091
:1011B800800F5200818F5A000B0032006FBA9700DF
:1011C800FFBA970061024200E0824A00E4BF9F0034
:1011D800F5BF9F006FBA9700FFBA9700800F5200C3
:1011E800818F5A00F5FF3A000080FA0000000600DF
:1011F80080437800850020000040EB0014C0B30055
:1012080007436200010032000040E8000442420047
:101218008502E900FAFF3A00000006000002EB0030
:10122800040878008082EB001500980024009800DC
:1012380034009800000006001008E800B002900092
:10124800410290000482420034009800410290005C
:10125800D10290001003900007002000860F520072
:10126800878F5A0001003100140098004102900055
:10127800D10290002003900007002000860F520042
:10128800878F5A00010036002400980000000600ED
:10129800800178008183FB006182630003003200D3
:1012A80012027800130A78001289E800628263004B
:1012B800040032001202780033009000000A78001F
:1012C8001289E800648263000B0032001203780080
:1012D800130278008002EB00850F520004003200F0
:1012E800B3029000110009008482D80080027800BF
:1012F800050B78001289E800070278000402B200A2
:10130800040032001202780093029000050A780067
:101318001289E800870078000104B2000400320056
:1013280012027800A3019000030A78001289E800ED
:10133800000006001A00FA00889FBE008A1F780085
:1013480089B12000994478000985FB0090B12000FC
:1013580035FD070000047800880F55000C0039009F
:10136800B4C0B30084E79F0094E79F0024C0B30093
:10137800A4E79F000042EB00B4E79F0001FE2F00A6
:101388008F8040000000EB00CD0A070018003700EE
:1013980009445400F44F54000100360048C1B3001A
:1013A8000881FB0091B12000810045007C80570036
:1013B80016FD0700894444000940780018EBB7007F
:1013C800B4C0B30084E79F0094E79F0014C0B30043
:1013D800A4E79F007F4464000874A000B8E79F005A
:1013E80001FE2F008F80400040A02000B40A0700B3
:1013F8004F0578004F04BE000080FA000000060088
:10140800E04F500002003A00E0992000C50B0700A9
:1014180000000600E4FF2F00F5FF2F000102420044
:10142800E0824A00E40F5200E08F5A0044003E0078
:101438000460010004003700100037001B0037006B
:101448002700370032003700700290000400A10026
:101458000410A1000420A1000430A1000440A00051
:101468000450A1000460A1000470A1007400980059
:10147800A4C0B3007448980031003700700290008F
:101488000400A1000410A1000420A1000430A10060
:101498000440A1000406B3000470A1007400980081
:1014A800A4C0B3007448980025003700700290006B
:1014B8000400A0000410A1000420A1000430A10031
:1014C8000440A0000450A1000460A1000470A10021
:1014D80074009800A4C0B30074489800180037003E
:1014E800700290000400A0000410A1000420A100D4
:1014F8000430A1000440A1000406B3000470A10058
:1015080074009800A4C0B300744898000C00370019
:10151800700290000400A1000410A0000420A100A3
:101528000430A1000440A0000450A1000460A10000
:101538000470A1007400980084C1B3007448980036
:101548000000060000027800F4029000EF826200BA
:10155800E18F52000D003200E28F52001500320078
:101568006000B800E08F520021003A00F44A900071
:101578008582FB00740090004400DE006F0060006C
:1015880000A8B900CF80DE00190037007400900071
:101598004400DE006F006000744A90000482FB0083
:1015A8000480B900C40320000480B900CF80DE00A5
:1015B8000F003700740090004400DE006F406000A8
:1015C800744A90000083FB00070020000482FB009F
:1015D80005002000060078000400B80004E120009F
:1015E800048AB90006E120000600B8008100420024
:1015F800000006004F02B000889FBE008A9FBE0010
:101608008C9FBE008E1F780024C0B300A0BB2000B2
:101618000448780000C0B300BBEBB70084618000C9
:10162800E45D88000402E800846188008006EB001D
:10163800FD5D8800CC0EF800C00BF900E60D070030
:10164800105E88002D5E88001CC6B3000C40780030
:10165800C6EBB70050C0B300C7EBB70021738000DA
:10166800A0BB20006BFF0700A0BB2000B5FF070050
:101678000005BE0092BC2000124178000281FB00E8
:101688000300200028FC07000004BE0000FD2F0016
:101698000F004000E1FE070080FD2F000F00400012
:1016A800DEFE070000FE2F000F004000EDFD0700E2
:1016B800AEBC2000BEB79F000C407800CCFE0700EF
:1016C8000082FB000402420004074700CEB79F00D7
:1016D800EAB79F00FBB79F0012002000030020001C
:1016E80020C32000B10D070000477800E04F5700E5
:1016F800610032002CC320000005EB008D45780006
:10170800B4BB200014427800E04F520003003A00B6
:101718001C407800BBEBB700020037009C4F52001A
:101728004F003A006C52B90026C3200084064300DB
:101738008D00780000FD2F000F004000BEFE07005E
:1017480050C0B300AAFE07000080FB000000400064
:101758004FB2970000004200A4BB200004005000D4
:1017680064072000840F50003D003C008ABF9F00A2
:101778006C50B9000080E80026C320000600400035
:1017880001FE2F008F804000A9FC07006FB2970070
:10179800FFB29700800F5200818F5A003000350049
:1017A800E00F5000E08F580007003D008B4678009E
:1017B8000E80FB008FBA970005005000CF80DE0036
:1017C8007E0D07002C00370094BC200014427800DE
:1017D8000442E90084F79F000801BE00D2FB07001D
:1017E8000FF397000043530086F79F008B4F530079
:1017F80017003600DCB79F000D0278000806BE000F
:101808008A04780006447800040578007881570037
:1018180051C0B30080FD2F000F0040009CFE070060
:1018280080FD2F000F0040007CFE07008B45E8007C
:101838008B4F5400F5FF3E000A0278000905780036
:101848000C04BE005FB69700840678008FF59700F9
:101858008D00780080FD2F000F00400076FE070005
:101868000A05E8006C0646008A4F5700A4FF3E00B0
:101878008B46780098FF370094BC2000144278000B
:101888008D4F52001A00360050C0B30058FE0700B2
:101898000084FB0008044400080578000D44780023
:1018A800CFB297008A824200A4BB200084825200F3
:1018B80064072000848F52000D003C007881570097
:1018C80051C0B30080FD2F000F00400070FE0700DC
:1018D80080FD2F000F00400050FE07000844E8007C
:1018E80094BC200014427800884F5200ECFF3E0060
:1018F8007A81570011C6B30000FD2F000F00400089
:1019080063FE0700A0BB2000CFB097008080500086
:10191800030A200092B12000470507000082FB005F
:101928000043EB0095B1200086727A001000200079
:101938004F0778004F06BE004F05BE004F04BE009B
:101948004F02B100000006001A00FA002073800060
:1019580028FF0700E00F5000150032000042EB009E
:101968000440780018EBB700B5C0B300E5E79F0066
:10197800F5E79F0084EF9F0040E52000AAFB0700E1
:101988007F4060000074A00090EF9F0040E52000B9
:10199800A5FB07000001780041E52000768057008C
:1019A8009AFB0700FA80570040A02000440907006E
:1019B8000080FA000000060023B1200000C1EB00FF
:1019C8002173800080CA2000DE080700000006009E
:1019D80020B12000FD08070000000600E60F5000B7
:1019E8000A003E002073880044B1200014427800A9
:1019F8000404B2000500320023B1200000C1EB004E
:101A08008000780080CA2000CE0807000000060089
:101A1800889FBE00EFCF500008003E008184FB0085
:101A280048E5200009017800800078000800780067
:101A380076FB07000042EB0004F47C004F04BE0074
:101A480000000600F40040006C004000A6040700F7
:101A58000000060010029000A002900044089800C0
:101A68005508980024089800350898000002EB00F3
:101A780054009800F3FF0700000006000800FA0071
:101A8800889FBE00000478008180FB000100E80008
:101A980000027800CFA2DE000503780086037800F4
:101AA800A4BF9F00B5BF9F00C6BF9F00D7BF9F00C0
:101AB8002FBB9700BFBB97004C3ADD00C432DE0055
:101AC800850272004C32DD00140498002504980049
:101AD8008381FB008181410003027800CFA2DE00F0
:101AE8000503780086037800A4BF9F00B5BF9F0058
:101AF800C6BF9F00D7BF9F002FBB9700BFBB9700F3
:101B08004C3ADD00C432DE00850272004C32DD0042
:101B18003404980045049800024C7800EC04440012
:101B280082C0B30009007800180407000900780093
:101B3800B7030700E00F500004003400F40044002D
:101B480009007800A00407000200370008007800A8
:101B5800C0FF07004F04BE000080FA000000060026
:101B68000800FA00889FBE008A9FBE008C9FBE00B6
:101B78000005BE001A4278000482FB000500200020
:101B88004A0C9000DA0C90000404440085844C0050
:101B98003A039000CA039000860F5400878F5C00B8
:101BA800080036001A049000AA049000480D980016
:101BB800590D98000404440085844C00140020004A
:101BC800540598004A0E9000DA0E90000C02BE00F0
:101BD8000003EB008603780000002F00F1FF2F00C0
:101BE800F2FF2F00F3FF2F000400600085806000E3
:101BF8000601610087816100E0B79F00F1B79F008F
:101C080082BF9F0093BF9F000020E10001A8E10070
:101C180002B0E10003B8E1000B0032004469DD00C6
:101C28004C60DE0000007100CC68DE00C449DD00B5
:101C38004C42DE0004827100CC4ADE00840F500062
:101C4800858F58002B0032000800BE006203070091
:101C580000002F0008006000614BB800C032DD00B2
:101C6800040020006103B800060272008782720037
:101C7800440D9800550D98001A4478000884FB001C
:101C8800090020000404440085844C005A03900095
:101C9800E00F5300170032002A0B9000BA0B900097
:101CA800860F5200878F5A0012003E000000210064
:101CB800010020000402400085824800860F52007F
:101CC800878F5A000B003600240D9800350D9800B8
:101CD8003A039000CA039000860F5200878F5A007B
:101CE800040039001A029000AA029000240D9800FE
:101CF800350D98004A089000DA0890009A4278005A
:101D08008581FB000B017800E0020700480D980070
:101D1800590D98000A0078004AFF07004F06BE00D8
:101D28004F05BE004F04BE000080FA000000060008
:101D3800200B9000B00B9000104278000482FB004A
:101D4800050020000402430085824B00300190000A
:101D5800C0019000820F5200838F5A0005003600A0
:101D680010029000A00290002408980035089800FE
:101D780015003700C438DD004C33DE0006837000E0
:101D8800CC3BDE00C428DD004C21DE00028170005F
:101D9800CC29DE00820F5300838F5B000A003200DB
:101DA80001002F0084806000612BB800C032DD0084
:101DB80004002000610BB8000602720087827200DE
:101DC800240898003508980000000600889FBE0087
:101DD8008A9FBE008C9FBE000006BE000204BE00A3
:101DE8002C089000BC08900002054000838548003C
:101DF8003C029000CC029000840F5500858F5D0056
:101E08000D0036000405550085855D000A01510066
:101E18008B8159000C00BE00ECFF07000004BE00D7
:101E28000A01BE000C00BE00E8FF070000004400E5
:101E380081804C0011003700820178001D01780074
:101E4800BB0207002C0A9000BC0A90000402440060
:101E580085824C00240E9800350E98000C007800FE
:101E6800B3FF07009D0E44001C4178000281FB006F
:101E7800030020000800BE003AFA07004F06BE0023
:101E88004F05BE004F04BE00000006001042780057
:101E98000482FB0005002000049BB9000412B8006E
:101EA80085024300200B9000B00B90000402530001
:101EB80085825B0040099000D0099000820F520093
:101EC800838F5A000700390010039000A003900088
:101ED8000401BE00860F5200878F5A0001003100AE
:101EE8000601BE002208980033089800000006008A
:101EF80000027800D4029000E08F52000700320000
:101F080044089000D4089000240B9000B40B900073
:101F1800860F5000878F58000B0036004408900049
:101F2800D4089000240B9000B40B900006005000D9
:101F380087805800144178000281FB0003002000CC
:101F480008FA07000E00370034019000C401900021
:101F5800000041008180490014019000A401900014
:101F68000200500083805800060050008780580007
:101F7800144178000281FB0003002000F9F90700F2
:101F880000000600200B9000B00B9000400A900063
:101F9800D00A900004026B0085826B000502720073
:101FA80004F0A7000402EA000400E9004F00DE0084
:101FB80000000600889FBE000004BE0008007800EC
:101FC800F0FF0700000278000000EB00800F5200CD
:101FD80007003A0028089000B808900018447800D4
:101FE8008881FB00090178005102070010002000D9
:101FF8004F04BE00000006000200FA00889FBE00E1
:102008008A9FBE008C1F780000067800A1BF9F0041
:102018000205BE000C007800DAFF07006044B80033
:10202800E00F500012003A000C007800B0FF0700E3
:102038000004BE008A0F50008B8F58000100360044
:102048000A04BE001C4178000281FB000300200046
:1020580002CAB9000241B80083014200EC8057006F
:102068000C00780059FF07000C00780075FE070087
:102078000800BE004F0678004F05BE004F04BE00A2
:102088000080FA0000000600889FBE000004BE0021
:1020980008007800BBFF0700000278000000EB0092
:1020A800800F520014003A0028089000B8089000E9
:1020B800184278008481FB00090178001C0207009F
:1020C800184278000482FB0005002000280B9000CD
:1020D800B80B90000602420087824A00240C980040
:1020E800350C98000800780011FF070008007800F8
:1020F80054FE0700100020004F04BE000000060038
:10210800942DEF0000000600926DEF00942DEF0073
:102118006022B800846B8800956B8800B46B8800D7
:10212800C56B8800E46B8800F56B8800146C880028
:10213800256C8800446C8800556C8800746C880095
:10214800856C8800E1D6200060D92000E6020700EF
:102158000000060045DE200024D920001442780043
:102168000482FB00840A7800446C80000400780034
:102178008A0DB7000002780004F0A7000402EA0004
:102188000402EA004F22DE00766C8000876C800033
:10219800E00F5300E08F5B00010032000410A00044
:1021A8009402980040C0B3003509070000000600FB
:1021B80044DE200014407800E54F5000030036004C
:1021C80070C0B30016080700280037008082FB00A3
:1021D80062C0B3000440BC0006D7200006004100DE
:1021E8001003BE00E00F5300E08F5B0003003A00CD
:1021F80070C0B3000A0807001C0037006628B90041
:10220800E2D62000624078000080FB00000A7800D7
:102218001702980026029800C646280066C37A006E
:102228000680FB00010020000200200003002000BF
:10223800CC08DD00C403DE00818073004C00DD00A3
:10224800310298000683FB00CC33DD00470298007A
:102258005602980026472800E6C27A008582FB00CD
:1022680065029800E0C0B3000509070000000600F9
:10227800889FBE0044DE20001440780014029000BD
:10228800E54F50000300360070C0B300E4070700B4
:1022980023003700050020000083FB0062C0B30064
:1022A8000440BC0007D72000070041001004BE000E
:1022B800880F5200898F5A000300390070C0B3009C
:1022C800D707070016003700C746280067437B007A
:1022D8000683FB00070020004C38DD00C430DE0018
:1022E800810070004C30DD000404540085845C00DB
:1022F800F40F5400E08F5C00020036004801200013
:10230800090020000000420081804A008881FB000B
:1023180042DE20008601070008407800D808070040
:102328004F04BE0000000600889FBE008A9FBE00C2
:10233800A46C8000E00F520003003A0070C0B300A4
:10234800B70707004600370064DE20001442780013
:10235800E04F520034003A0044DE20001442780076
:102368000482FB00E5CDBF004800DD0004007000DA
:102378000100200033DE200093417800FFC1610096
:10238800E3C151000383FB0007002000060340005F
:1023980087834800E4D92000144278000482FB00B7
:1023A8002547280065457A000A85FB000B002000B8
:1023B8004C5CDD00C454DE00890474004C54DD001C
:1023C800880F5300898F5B00250031006624B9000F
:1023D80005D7200085024400B50F5300A58F5B0088
:1023E8000300360005D7200088824200868ABE0096
:1023F800C546280065437A000683FB0007002000D5
:102408004C3ADD00C432DE00850272004C32DD0039
:1024180004004000858048008381FB0072DE2000B4
:102428001A0107000E003700E14F52000C003A0075
:10243800942DEF00E4D9200014427800E34F5200B5
:1024480001003E00926DEC00E1D6200060D920002A
:10245800250207008000EB00200020007D07070010
:102468004F05BE004F04BE0000000600889FBE0056
:102478008A1F780045DE200095427800E5CF52009B
:1024880003003A0040C0B3009EEDB7000E003700CD
:10249800E6CF520003003A0050C0B3009EEDB700EB
:1024A8000900370024D9200014427800E64F520072
:1024B80003003A0070C0B300590707002D00370029
:1024C800044078009EEDB7009ECDBF000082FB005F
:1024D80062C0B3000440BC00E6D620000573790052
:1024E8008682E800028142000009EB003211780080
:1024F80025472800E5427A00E0CF52001600320056
:102508000044EB00CA462800294728006A427A009E
:102518000482FB00050020000883FB000700200060
:102528000402430085824B004C28DD00C420DE00F5
:10253800810070004C20DD00270107000844E800F6
:10254800E4D92000144278000482FB00E9427A00B2
:1025580088CF5200EDFF3E0011002000A16C8800DA
:10256800200020003B0707009ECDBF000080FB0035
:10257800550807004F0578004F04BE00000006000C
:102588008080FB0062C2B30060D920007F01070091
:1025980060D920001E010700E00F5000030034003E
:1025A800E1D6200060D920000702070000000600DD
:1025B8004342A90042A2A80042C2A80040C2A90002
:1025C80041E2A800300020004222B7001412800027
:1025D8000420A1008401B30014128800F102A900AC
:1025E800ED04A900F122A800ED24A900F0C2A90079
:1025F800ECC4A900F0E2A900ECE4A90004FC2F0057
:102608004635800086026200B501B3004535880072
:10261800F50F2C00A6368000868262000670200026
:1026280086827200A5368800D536800005026200D1
:102638000430A000D4368800F502A8000000060087
:102648004022AB00FEFF3A000080FB0040128800E9
:102658004002AB00FEFF320040128000000006007E
:10266800889FBE006F82600005002000C024DD0046
:10267800080020006102B800040474008584740016
:102688004048DE0001002000EDFF0700484ADD0059
:102698004840DE0000007200C848DE00E8FF07007E
:1026A80008407800E6FF07004F04BE00000006005F
:1026B800F502A90060C0B300E1FF0700F502A80019
:1026C80000000600881F7800F502A90050C0B3007A
:1026D800DBFF07000044EB0008407800D8FF070044
:1026E80061006000FCFF3A00F502A8004F04780082
:1026F80000000600E22EA90000000600881F7800EE
:1027080000047800E22EAB0009003A00A8FF070099
:10271800E4A2A800E0A2A900E22EA800E20EA80008
:1027280000FA2000010020006011B800160B070015
:10273800E00F540007003200E20EAB000500320043
:1027480000B82B00010020006011B8000E0B070034
:10275800E20EA9004F04780000000600E20ED50042
:10276800610060000000060041E2A900E4A2A9009F
:10277800E0A2A900F102A900F502A900ED04A90050
:10278800F122A900F522A900ED24A900F0C2A900B0
:10279800F4C2A900ECC4A900F0E2A900F4C2A9009F
:1027A800ECE4A900E22EA90000000600889FBE0004
:1027B8000000EB00D1FF0700F502A900F0C9B30043
:1027C8009FFF07000040EB009DFF070000447800D2
:1027D8000040EB009AFF0700804478000040EB00BF
:1027E80097FF070080427800F502A8000000EB0080
:1027F80004C2B300844F540007003A0014C7B30062
:1028080084CF540004003A0045C1B2000580FB00A3
:102818000000E9004F00DE004F04BE000000060083
:10282800889FBE008A9FBE000004BE008205780013
:102838000305780010002000B0FF07009CFF070088
:10284800F502A90020C0B3007DFF07000800BE0004
:1028580083FF0700E00F5500070032008B04780063
:102868000004EB003940780075FF07000804E80011
:10287800880F5500FBFF3E00F502A80091FF0700F6
:102888004F05BE004F04BE0000000600889FBE0032
:102898008A9FBE008C9FBE008E1F78000005BE0078
:1028A8008204780003064000E08648008C0F500040
:1028B8008D8F580019003100FE0F20000A026700B2
:1028C800061020000700200004025300E0825B008D
:1028D8000A0356008B835E00860F5200878F5A00CA
:1028E800020039000604780001003700040478006B
:1028F80088017800090178000A00BE00C8FF0700B7
:1029080008054500E0854D008A0F56008B8F5E0054
:102918000200360088844400E8FF37004F0778003B
:102928004F06BE004F05BE004F04BE000000060063
:10293800889FBE008A9FBE000004BE000205780082
:10294800830545000000EB006CFF0700F502A900B5
:1029580030C0B3003AFF07000800BE0040FF070080
:102968008B0F5500060032000044EB000840780049
:1029780033FF0700005D78008A8F5500FBFF3A009F
:10298800F502A8004F05BE004F04BE000000060077
:102998000000EB0059FF0700F502A90050C0B30082
:1029A80027FF07000040EB0025FF0700F502A800FD
:1029B800000006001000200050FF07003CFF070041
:1029C800F502A90070CCB3001DFF0700F502A800AE
:1029D8003CFF070000000600889FBE000004BE0000
:1029E8001000200045FF070031FF0700F502A9008D
:1029F80000C2B30012FF07000800BE0018FF07005E
:102A0800F502A8002FFF07004F04BE0000000600D3
:102A180020009000000006000042EB00EF4F50003D
:102A28000100360044C0B3000080FB008482FB0034
:102A38000580DE008042EB00E34F500001003600C5
:102A480025C0B3000080FB000583FB000680DE0084
:102A580004C272000080FB000000D1000040720038
:102A68000040E800000006000002EB00840F500060
:102A7800050032008002E900050060000402E80059
:102A8800E00F5000FBFF3A00040078000000060049
:102A98000200FA00889FBE008A9FBE008C1F780043
:102AA800800578001B029000050020004C28DD00FE
:102AB800C420DE00810070004C20DD000008B0005A
:102AC8000180B000230020006C81570098FF0700A8
:102AD800FAC3B3000044EB002C0020002FBA970083
:102AE800E10F420003003A000002EB00A405980041
:102AF800210037008A84FB000882FB00848444009C
:102B08008984D1001B029000050020004C28DD00BC
:102B1800C420DE00810070004C20DD000008B000F9
:102B28000180B0000982440004004000E0804800B1
:102B38008C0178006C8157007DFF07002FB8970043
:102B4800E10F400002003A000945E90003003700A0
:102B5800E00F500003003A000944E800884F550090
:102B6800E4FF3100C0FF0700C44CDD00808454003E
:102B7800F0844400A90598004F0678004F05BE0070
:102B88004F04BE000080FA0000000600889FBE00C7
:102B98008A9FBE008C9FBE008E1F780000057800BB
:102BA80081067800824578000A077800616AB800D3
:102BB8004C2CDD00C424DE00890474004C24DD00A4
:102BC800830020000A0178000800BE0058FF0700B3
:102BD8000006EB00B4AB2F009A0F120009003A0070
:102BE8006A4290002C0020008B4F520005003A00EA
:102BF8001A0290001C0020008D0F520014003200B1
:102C08002C002000B4AB2F00040D78001D0598009F
:102C18000002EB00240598006B4598000B407800F3
:102C28007DFF070070459800E14F500002003E000C
:102C380024C0B300744598000800BE0066FF070072
:102C4800830020000E0178000800BE00F4FE070093
:102C58000A0078008EFF07000C0078004F07780004
:102C68004F06BE004F05BE004F04BE000000060020
:102C78000200FA0020029000C322DE001003900038
:102C8800070020004C38DD00C430DE0081007000F1
:102C98004C30DD0005004000E08048000008B0002E
:102CA8000180B00067026200160020000433DD00D6
:102CB8000603EA00F6BF9F00E00F520005003A0045
:102CC800E08F52000300320061005000E08058009D
:102CD800F4BF9F00130020000F81E900D0FE070019
:102CE8000080FA0000000600889FBE000004BE00B5
:102CF8002800900001002000784290000482FB0028
:102D08000402E9000300330000004000818048000D
:102D1800FBFF37000010B0000180B0000400210064
:102D2800840F5000E08F580014003A000002EB00B6
:102D38002404980018029000050020004C28DD00AB
:102D4800C420DE00810070004C20DD0022FF070057
:102D580018029000050020004C28DD00C420DE0089
:102D6800810070004C20DD008300200008017800FD
:102D7800ABFE07000010200001002000E841900091
:102D880018039000070020004C3ADD00C432DE0032
:102D9800850272004C32DD000000420081804A004A
:102DA8008381FB00090178009DFE0700280290003E
:102DB8000402E8002404980008007800ACFF07002B
:102DC8004F04BE0000000600889FBE000002780085
:102DD80001017800240090000000E90001002000B3
:102DE800F44290008582FB008502E900030033006D
:102DF8000000400081804800FBFF37001404900069
:102E0800090020004C4BDD00C443DE00870373003B
:102E18004C43DD000610B0000780B000E44190008C
:102E280006004000878048008381FB00C0FE070041
:102E38004F04BE0000000600EA874700889FBE00D6
:102E48008A9FBE008C9FBE008E1F78000006780007
:102E580001047800D2B79F008882E800340020007F
:102E6800110009008482D800000278004222DD00A7
:102E7800E4B79F000002EB00EFB29700838F520087
:102E880059003E00840F5400450032008202780049
:102E98000001EB006055B800FAB79F008BBF9F0098
:102EA800F7032000664228000C00780088007800AC
:102EB8000A04BE00828F5000040036006041790089
:102EC8000284FB00090020000402E800848F5000FF
:102ED8000C00360060467A000C86FB000D002000CE
:102EE8000402E8000A01BE00848F50000800360082
:102EF80060417A000281FB00030020000402E80020
:102F0800030037000A06BE007FB197008FB997000B
:102F1800C044DD00080020000201440083814C0009
:102F2800486CDD00C864DE00890474004864DD0074
:102F38000201440083814C00421CDE00090020008D
:102F480008846300E64A7C00CC1CDE00441EDD00D9
:102F58004C14DE00080476000884630066447C0094
:102F680098429800C61CDE004A1EDD004614DE00AA
:102F7800080476000884630066447C00A842980030
:102F88000281630066417900B2429800040178002A
:102F9800E4824200848F5000C5FF3E00010478009F
:102FA80034002000110009000484D800818040000A
:102FB8006446280064837800E00F53000900340059
:102FC8005FB09700EFB09700810240000002EB006D
:102FD800D7C3B300876278000402E800860F520066
:102FE800FCFF3A006FB29700040078004F077800A2
:102FF8004F06BE004F05BE004F04BE00AF00B10033
:103008000000060000427800F0CBB3000040420008
:10301800F94F500016003600F6C9B30006434200C7
:10302800F94F530003003E0090CBB300004042002C
:103038000F00370006CDB30006434200E94F5300A6
:1030480002003E006440420009003700E0C3B300BC
:10305800B5C2B300854F5200050032000040EB00B6
:10306800E4C24200854F520001003A00F0C3B300A9
:1030780000000600EA874700889FBE008A9FBE00BE
:103088008C9FBE008E1F78008004780001047800B1
:10309800630264000080EB005B003A004242DE00FD
:1030A8006322B90004037800D6B79F000882440061
:1030B800F4FA9700D4C3B30084CF520002003A0058
:1030C80000034300D6B79F0008824400E4FA970043
:1030D800D4C3B30084CF520003003A005FB2970014
:1030E8000402E900D4B79F000080EB00DFB297002C
:1030F800838F520044003E00E00F5400410032002C
:103108000985E800820678008005EB00DCC3B3007F
:103118000D077800F9B79F00E8B79F007FB39700C5
:1031280066C07D00B7FF0700004478008ABF9F0093
:103138007AF89700B3FF0700804478001A407800B7
:10314800B0FF0700804678001A409000ADFF0700E6
:103158000883FB00C233DD00060020000981FB0064
:10316800030020004C1ADD00C412DE008502720044
:103178004C12DD0004027300858273000081FB009D
:103188000300200002007200838072000D82FB00A1
:10319800050020004629DD00CA21DE0083017100F8
:1031A8004621DD00020070008380700080C2EB00C1
:1031B80001CF62009A4F16001200320005F02F006E
:1031C8000083620007002000C83ADD004833DE00B3
:1031D80006837200C83BDE00164798000FBB9700B5
:1031E800964F16000700320020479800E4854500F6
:1031F80064054500630747006FB297008B0F5200C4
:10320800C6FF3E005FB097004F0778004F06BE002C
:103218004F05BE004F04BE00AF00B100000006001D
:10322800D4BC2A00044088000000FE00000006000C
:103238000000FE0000000600246F8000E00F52002E
:1032480004003200110020000000EB000104070018
:10325800020037006000B800FE0307000000060007
:10326800C06580001805070000000600804D80003A
:1032780015050700000006000800FA0068805700DE
:10328800E7F6070044DE20000FFB97008682FB006C
:10329800050A78009FFA97008582FB0015029800BE
:1032A800AFFA97008582FB0025029800BFFA9700C5
:1032B8008582FB0035029800CFFA97008582FB00D3
:1032C80045029800DFFA97008582FB0055029800B6
:1032D800C0C0B300D30407000080FA000000060055
:1032E80041DE2000809A2000B7FE070040C1B300ED
:1032F800CC0407000000060041DE2000809A200070
:1033080079FE0700604D8000EF040700000006000A
:10331800881F780048DE200042C1B300980078007A
:10332800809A200019FE0700000C7800849A20007B
:1033380094027800150498009402900025049800DF
:10334800A402900035049800E44290008582FB00B6
:1033580045049800744290000482FB0054049800CD
:10336800C0C0B300AF0407004F0478000000060097
:1033780040DE200010039000CFB3DE00C033DD0034
:1033880006002000100078006102B90004007300F4
:103398008580730090FD07000040EB00A104070042
:1033A80000000600889FBE008A9FBE004ADE2000FB
:1033B8008A85E8001B047800CFC4DE00C044DD0025
:1033C800080020001A027800CFA2DE00040474006E
:1033D8008584740033DE200093417800FF8161000A
:1033E800640145000800BE0028FD0700080D7800AC
:1033F800890D780040C0B3008A0407004F05BE005D
:103408004F04BE000000060042DE200012009000BB
:10341800CF80DE00C000DD0000002000120278002E
:10342800CFA2DE00040070008580700043012000F8
:103438003FFD070040C1B3007A0407000000060002
:10344800206F8000CF80DE00844D800005002000C2
:10345800840F5000858F58000300390070C0B300F6
:103468006F030700050037006B00B900249B20009C
:1034780000004200B1C0B300840407000000060049
:10348800804D800004022000840F500005003200A7
:1034980034DE2000144278007F026200EB0F5200F5
:1034A8000300320070C0B3005D0307000A00370054
:1034B8006B02B900269B20000402430045DE200071
:1034C8000A000900355A7800B400B1006B004000CA
:1034D8007D040700B029EC0000000600C7040700BF
:1034E800F442A900F462A900DC62A900F042A90034
:1034F800F062A900D862A900EC62A800E862A900FD
:10350800B029EF0000D42000310020006011B8007D
:103518009D070700F042A800F062A800D862A80042
:10352800E862A80080C0B300180307000000060086
:10353800E862A800EC62A900D862A800DC62A800D2
:10354800E6FF0700000006004F02DD00F0FF27003D
:103558004003B60004007000001A8800000006004E
:10356800881F7800000478000000EB00F6FF0700D1
:10357800B8029000E1826200CD2ADD00F4FF2D0040
:10358800001A80000003620085027300051A880093
:103598009842780063C362004833DD00F5CF2F00FE
:1035A800071A80008782620086827200051A8800E6
:1035B800284390006F0363004433DD00F5F02F00CB
:1035C800001A80008082620086827200051A8800D4
:1035D800380390000603D00064036300B5FF2F0092
:1035E800071A80008782620086827200051A8800A6
:1035F800A80290008503D100CE3BDD00F6FF230032
:10360800101A80000003630007037300161A88006D
:10361800E1826200CD2ADD00161A800006026200EF
:1036280005027200141A8800B8029000C22ADE004F
:10363800E1826200CA2ADD00F4BF2F00171A800059
:103648000702620005027200141A880034F82F007D
:10365800101A800000026200C401B300141A880026
:103668004223A8004203A90045E3A900B80290003C
:10367800C42ADE00FF826200C82ADD00F40F2E0093
:10368800261A80000602620005027200241A8800C9
:1036980085A0A900380290000420B2000D00320075
:1036A800C80290008542E900FF826200C22ADD005C
:1036B80034F82F00171A8000070262000502720012
:1036C800141A8800380290004922DE006102620064
:1036D800847688004F0478000000060095A0A900B1
:1036E80030F82F004223B60085A0A9001000200062
:1036F80095FF07000500220026048000068262006C
:10370800E00F5200FCFF32000000EB008EFF0700C4
:103718000018800085A0A90034F82F00151A800031
:1037280005026200C401B300141A880000000600F4
:10373800801A88004343A800000006004343A900FC
:103748007F02600000FE2F004803B60004007000EE
:10375800401A880000000600707688000000060005
:103768003600F800809FBE00829FBE00849FBE0086
:10377800869FBE0004082000151A8000050262001A
:10378800E00F5200110032000003F800860EF90025
:103798000203F800880EF9000403F8008A0EF90005
:1037A8000603F8008C0EF9000803F8008E0EF900E5
:1037B8000A03F800900EF9000C03F800920EF900C5
:1037C8000E03F800940EF900100037001003F800FB
:1037D800860EF9001203F800880EF9001403F800A9
:1037E8008A0EF9001603F8008C0EF9001803F80089
:1037F8008E0EF9001A03F800900EF9001C03F80069
:10380800920EF9001E03F800940EF90084768000E9
:10381800E00F5200020032000000EB004AFF0700F0
:1038280070768000E00F500001003200BD020700F2
:1038380085A0A9004F03BE004F02BE004F01BE0085
:103848004F00BE003600F90000400600B80C00002A
:10385800680000008200000000002A00001000003C
:10386800C00C000000441A0080000100003A190052
:103878000000020000241A002000030000081A00BB
:103888004000040000D61900C000050000721A00AC
:103898000000060000BC190040000700008C190059
:1038A8002000080000801900800009000074190039
:1038B80000000A000014190000000B00005E270039
:1038C80000000C000040190000000D000034190031
:1038D80000000E000020190020000F00001C190035
:1038E80000000000A80900006A0100008000000034
:1038F800C00E00000A00000082000000B40EBA00EA
:103908000CA00D00FA0D1E000E000000420E000073
:103918001200000080000000540E00001200000099
:10392800820000002B31340031353900393238003B
:10393800333730000000000000030000120B0000C5
:103948002C0100008000000002080000A601000011
:1039580080000000FA0D0000240000008200000032
:103968003C00050000000E000000A6002900000031
:103978000100A2002900000002009E0029000000AA
:10398800030098002920000004008C002980000012
:103998001E0E000024000000820000004600050002
:1039A80000240E000000C00027C000000100A6008F
:1039B8002700000002009A00270000000300920080
:1039C8002700000004006C0027000000DA0E000049
:1039D8000200000080000000CA0E00000400000081
:1039E800820000000000000000000000660E0000D9
:1039F8001000000080000000A00D00003000000052
:103A0800820000000700070000A60D0000003A0031
:103A180012200000010098001180000002008400BC
:103A2800100000000300DC001020000004003C002F
:103A3800114000000500AE00100000000A008800D8
:103A4800100000006E0D0000320000008000000031
:103A5800A60E00000E00000082000000000000001A
:103A6800000000000000000000000000000000004E
:103A7800DC0E00000200000080000000760E00004E
:103A88001000000080000000200D00004E00000023
:103A980080000000B40E00000C000000820000004E
:103AA8000000010000BA0E000100E40029A0000097
:103AB800DE0E00000200000080000000D00D0000B3
:103AC8002A000000800000003E0C00007A00000080
:103AD80080000000CE0E00000400000082000000FC
:103AE8000000000000000000860E0000100000002A
:103AF80080000000E00E00000200000082000000CC
:103B0800D00D0000960E000010000000800000009C
:103B1800E20E00000200000080000000D20E00004B
:103B28000400000082000000000000000000000007
:103B3800D60E000004000000800000000000000015
:103B48000002EB00B5738000848F520008003A0031
:103B580065E72000140020000003EB00D50F1300D8
:103B680003003A000402E800E70F5200FAFF3A00A7
:103B78000400780025748000848F5200070032000A
:103B880024748800E70F520002003A006CF5070021
:103B980002003700C1E321003BF5070000000600E2
:103BA80090027800FF3FFC0005027800E08F520089
:103BB8001F003200818F520012003A00A5029000C7
:103BC800050878008002EB002502980013003700F2
:103BD800A4029000818F520005003200050278008F
:103BE800E00F5200FAFF3A000C0037000502780097
:103BF800A1029000250298000002EB00A4009800A2
:103C080006003700E08F52000400320025029000C1
:103C1800810F5200F2FF3A00F4FF37002142900072
:103C28000464A100A4409800C5FF07000000FC0040
:103C380000000600FF3FFC0010027800E00F520071
:103C480003003A0001087800A40098000200370039
:103C5800A400980001087800214290000464A000A4
:103C6800A4409800B6FF07000000FC000000060012
:103C7800889FBE008A9FBE008C9FBE008E1F780062
:103C8800FFF40700800678004CE720000005EB00F1
:103C98006EE720005C047800E00F540003003A004F
:103CA8001500370009047800020037008A0545002E
:103CB8008E85450028429000E04F520003003500F1
:103CC800384290000442E900344498001800780013
:103CD80094010700A804900038429000E04F520079
:103CE80003003A00880078000B007800ACFF07005A
:103CF800E08F5400EBFF3A000A05E8008A8F56006F
:103D0800E4FF31004F0778004F06BE004F05BE00A4
:103D18004F04BE00000006007400200024748800D0
:103D28000002EB00B4738800C4738800D473880061
:103D3800E4738800F473880004748800147488009D
:103D480000000600889FBE008A9FBE00800578009C
:103D58000105780082447800030478002840900028
:103D6800000278000404B200080032006700600016
:103D7800E60F500005003E000000400064E7200008
:103D8800040040008800780085FF07000B0C7800CD
:103D9800394498006742650024449800E1CF440004
:103DA80002003A000474A000244498000A05450063
:103DB80064E7200004004500880078009DFF0700A4
:103DC8004F05BE004F04BE000000060080007800CA
:103DD80021409000670060000000400064E7200078
:103DE800040040006EFF07000000060010C0B3008A
:103DF800DEEDB7001D050700E00F500002003A0095
:103E080060F421004A0107008D020700840C20009D
:103E18000402E900FEFF3A00D46E8000E00F520071
:103E280004003200E2CDBF000080FB004500DE0048
:103E38000400010000000600FD000700E04F5000EC
:103E480003003A0000F22100390107000C00370096
:103E580088010700DE6DEF0020C0B300DDEDB7007C
:103E6800F476800054409000E7000700F476800064
:103E780063414000E30042002440900075040700BD
:103E880000000600E4040700F076880010007800BF
:103E9800D06E8800E8FF07000000EB00D904070097
:103EA80000000600DECDBF000080FB000000060019
:103EB80010C0B300DEEDB700CC0407000000060018
:103EC800889FBE0080047800010478003840900084
:103ED800CD0007008080FB00E38040000800E80078
:103EE8006E0407008800780009007800D0040700F5
:103EF800E4DD200014427800E04F52000100320057
:103F0800E0FF07004F04BE0000000600F4768000C2
:103F1800244290000041780021DE2000044078000F
:103F28004F0407000000060024DE20001442780039
:103F38000482FB004522DE00E40F520005003A002F
:103F4800F4768000244090000080FB00BAFF070050
:103F580001003700A5FF0700000006004B0107001D
:103F6800E20F500003003A0000F22100F0000700C1
:103F780034003700D4DD200014427800E34F5200AB
:103F880009003200E44F520025003200E24F52008F
:103F98002C003A0010002000DCFF070030C0B300FE
:103FA800DDEDB7002700370038010700E00F5000AB
:103FB8000900320024DE200014427800E14F42005C
:103FC80002003A0089FF07001E0037001000200099
:103FD800CEFF07001B00370004CEB30025DE20000B
:103FE8009542780004C2620002003200CEFF07004A
:103FF80014003700E2CDBF007F0060004240A900F6
:10400800050034000080E800C0FF070040C0B3008E
:10401800DDEDB7000B00370074FF0700090037001B
:104028001A010700E00F500005003200E2CDBF0082
:104038007F0060000080E800B4FF0700010037003F
:104048006AFF0700000006000041780085DD2000B7
:10405800954278008582FB0005007800D60EB400F2
:104068000002780064827A002402900002407800FE
:1040780062C0B3000440BC00020242004440900009
:1040880000000600C776800000C0EB00E08F5300F8
:104098002D003200B1768000E1CDBF00110278001A
:1040A8008042EB00944F100005003A000C003700E6
:1040B8000403420061037B00964F100004003200A5
:1040C8008542E8000582FB00870F5200F8FF39009F
:1040D80000C0EB00870F520003003A001A003700B7
:1040E8000002EB008442780005407800D8EDB70064
:1040F8000402420061027A002443900000C0EB00F1
:10410800E04F5300100032002402900027DE200008
:10411800974378000040EB0094CF13000A00320068
:1041280066024200040037009442780066024200AA
:1041380087CF5200040032000040E800804F53004F
:10414800F9FF3E0000C0EB000000060000417800C7
:1041580085DD2000954278008582FB000500780007
:10416800D60EB4000002780064827A00240290001F
:104178000240780062C0B3000440BC000202420062
:104188001402900004000100000006000800FA0074
:10419800A0FF9F0024C0B300B4FF9F0024FB2100B0
:1041A800E4BF9F0004372200F4BF9F00040C2000E6
:1041B800C4BF9F0010C0B300DCEDB700DD6DEF0099
:1041C80068805700620107008101070038FF070077
:1041D8000080FA00000006009BFF070035DE200083
:1041E80095427800050EB2000082FB0004806A0048
:1041F8000000E9004F00DE00000006000006B200E3
:104208004580DE0000000600000278000406B200C7
:1042180044A2DE007F406000044040000000060029
:104228000080FB004500DD00E2EDB700000006005D
:1042380044108000680262000040EB0004003A006D
:10424800301080007F0060000000E9004F00DE00B1
:1042580000000600EF0F50000A003E00E08F5000FB
:1042680004003200140020000020DD006C2DB7008F
:1042780004003700140020000020DD000080EA0060
:104288006C2DB6000000060003012000420020004B
:1042980001D2200000042000010040008D02070028
:1042A8000000EB00606B8800506B8800800078008D
:1042B800E8FF0700000006000002EB00EF0F5000C7
:1042C80005003E00140020000022DD00656B800020
:1042D800048262000022DE0004007800000006006C
:1042E800506B8800000006000400FA00E0BF9F0041
:1042F800F1BF9F0000D620003702070000027800B7
:104308000000EB00800F520004003A00E4805700E0
:1043180000D6200053020700100020000080FA0099
:10432800000006008000EB00EFFF07000000060019
:1043380011002000ECFF0700000006006C2DA8000B
:10434800000006006C2DA90000000600606B8000CC
:10435800620060000000D100000006000400FA00BE
:1043680000D6200014020700000278000000EB00CD
:10437800800F520011003A00E480570000D6200058
:1043880027020700F1FF0700E00F50000800320085
:104398007FBA9700E00F520005003A00E48057000A
:1043A80000D620002F02070010002000030037006D
:1043B8006FBA970004000100100020000080FA0086
:1043C80000000600881F78000004EB00E3FF0700E8
:1043D800E00F5000FDFF3A006C0DAB00FBFF320010
:1043E800546B8000E00F520004003200080078008F
:1043F80004000100E00F5000F4FF3A00E00307005A
:10440800F2FF37000822AB00150032002301070035
:10441800E00F50000D00320074002000B4748800D2
:104428000477800064429000E04F520002003A0096
:104438009A2EEF000200370014002000D474880080
:1044480006A2A8000682A8000600370006A2A90056
:104458000682A80054002000B474880001003700C8
:104468000662A8000000060084002000B4748800DA
:104478000000060064E920008002EB002502980095
:10448800050A78000410800000000600D07480003F
:10449800000006003600F800809FBE00829FBE0024
:1044A800849FBE00869FBE008620A900044020008D
:1044B8004510800005026200E00F5200060032003D
:1044C8000942A90024002000D474880010758000D7
:1044D80097FF07002F003700B67480000082EB00BA
:1044E8008082EB0006024200E0824A00E60F52009A
:1044F800E08F5A0027003E000460010006003700E4
:104508002400370012003700220037000E00370061
:10451800200037001D00370004778000144278001F
:104528000482FB001410880004108000C574800009
:1045380054002000E08F520001003A0034002000AF
:10454800B474880013003700AEFF0700110037006D
:104558000477800094029000954278008582FB00E1
:1045680015108800940290008502E8001502980052
:104578009402900024029000848F520005003A00B3
:1045880074002000B47488000200370010758000A1
:1045980067FF07004F03BE004F02BE004F01BE0079
:1045A8004F00BE003600F900004006005201070027
:1045B800E00F50000300320040C0B30018FF0700AE
:1045C8000D003700AFFE0700D9EDB700E14F4000FE
:1045D80003003A0010C0B30011FF070006003700BF
:1045E800E3CDBF0008FF0700F44F5000020036007B
:1045F80030C0B3000AFF070000000600D9CDBF0095
:10460800F5FE07000042780010C0B300E04F5200EA
:1046180003003A0020C0B30001FF07000040EB0090
:1046280000000600E2EDB7000000060094DD20005F
:1046380014427800E14F420007003200EFFF070004
:10464800E04F5000040032000040EB00F5FF070087
:10465800D9CDBF00BDFE070000000600D9EDEF0070
:1046680010C0B300DCEDB70060C0B300EDFF070079
:1046780071C1B30010DE20008202070000000600AE
:104688007F406000E7FF070000000600881F7800F1
:1046980001447800F44F54000300360060C0B300B2
:1046A800DFFE0700060037000881FB008000780065
:1046B80040DE200055F0070008407800F0FF0700B2
:1046C8004F04780000000600206F880020C0B30067
:1046D800EBFF0700000006000402200045108000E0
:1046E80005026200E00F520017003A000842AB00D2
:1046F80014003200C4DD200014427800E04F52005C
:104708000C003200A9FF0700C8FF070011002000B5
:1047180020DE20006102070021DE200091407800A1
:10472800FF8060008180E80020DE20005B02070037
:10473800DC6DEF0071C1B30020DE20004B020700E2
:1047480001003700C5FF07000782A8000000060027
:10475800881F780000047800700020008802070095
:1047680004FC220018026200341088000C22EF00BA
:10477800284290000482FB00541088007402200034
:1047880024108800384290006702620085FF2F00DD
:104798006605800086826200848272006505880052
:1047A8004422DD00F5F82F0066058000868262004D
:1047B800048272006405880028029000147588003D
:1047C80038049000287588004F047800000006001F
:1047D800700020006A020700962EEF009E2EEF0060
:1047E8000410800007E2A8008600A9009600A8002F
:1047F8008620A9009620A800000006009600A900BF
:104808009620A9007000200054020700000006004E
:10481800B4748000E00F520002003A000602A800BB
:10482800010037000622A80064E9200015002000D6
:10483800050A78008002EB002502980000000600B7
:104848000642A800962EEF0000000600982EEF0002
:10485800D06DD400EEFF07000000060004DD200044
:10486800144278008442E900E2CF520003003E007F
:1048780054002000F4748800070037001500200059
:10488800C5748800044242000404A0000440780073
:10489800D0EDB700DEFF070000000600051080001D
:1048A8000677800016029000055A780014039800D5
:1048B8000477800064439000854243006542980075
:1048C80014009000240290000400680000F0A70083
:1048D8000000EA000000E9004F00DE0000000600CA
:1048E8000002400065EA2000E5027A000082EB0041
:1048F800E08F520004003A000002400065EA200000
:1049080081327A004802DD000400780000000600C9
:1049180000027800C822DE000080EB00E68F52001B
:104928000D003E00E04F52000B003A0005824200A5
:1049380066EA200066027A00E0FF2F00E00F5200CE
:104948000500320085824200060278000502420016
:104958000000EB00000A78000000060004082000B0
:10496800053A80000502620040002000E00F520076
:1049780010003A0004042000053A80000502620095
:1049880030002000E00F52000A003A00043A80008C
:10499800610262000000EB00800F520005003A003F
:1049A800043A800062026200800F520001003A005F
:1049B800700020004007A9004067A9004147A900EE
:1049C80040E7A90040C7A90000000600E076800083
:1049D80000000600881F7800E0FF07000004780048
:1049E800E876880084758000E00F520002003200EB
:1049F8000800780004000100E60F540004003600A7
:104A080094758000E00F520009003A000A00370050
:104A18000802440065EA200065027A00E00F5200AF
:104A2800F7FF32000800780004000100F4FF3700A7
:104A380008007800040001004F0478000000060018
:104A4800051080000677800016029000055A78004D
:104A58001403980004778000644390008542430063
:104A68006542980014039000A4029000850F53003B
:104A78000B003A0064429000E04F520002003A00F6
:104A8800A02EEF00020037001400200004758800F3
:104A980074002000F47488002075800024FE07004C
:104AA8000782A80000000600F074800000000600DD
:104AB80054002000F4748800000006003400200030
:104AC800F47488000477800094029000B54378005D
:104AD8000783FB00161088001502980094029000C6
:104AE80024029000848F520001003A009E2EEF00AD
:104AF8000782A8000000060000758000000006007C
:104B08003600F800809FBE00829FBE00849FBE00D2
:104B1800869FBE0004022000451080000502620046
:104B2800E00F520006003A000410800008C2A900F5
:104B38004DFE070020758000FDFD070011003700BD
:104B4800F4748000E50F520005003200E70F5200B0
:104B580007003200E30F520008003A000200370055
:104B6800B7FF070007003700D4FF0700050037002C
:104B780020758000EEFD07000200370008C2A9007A
:104B88000782A8008600A9004F03BE004F02BE009E
:104B98004F01BE004F00BE003600F900004006007D
:104BA8009102E80020029000040242000402E90099
:104BB8008488620000000600B00290004002900065
:104BC80004806A0000F0A7000000EA000000E90085
:104BD8004F00DE0000000600A002900030029000A6
:104BE80084826A004002900004806A0000F0A700F6
:104BF8000000EA000000E9004F00DE0000000600A7
:104C0800200290000402E900B00290000502620050
:104C18009002900005A2B9001000420000000600B2
:104C2800889FBE000004BE00FF3FFC00E08F5400D8
:104C38000600320008007800F1FF07001801900014
:104C48008000780009007800F0EE0700E6004400D4
:104C580008007800D2FF07000000FC004F04BE00E7
:104C680000000600881F780000047800FF3FFC0061
:104C780018019000280090000000E900C802900088
:104C8800050060000282B90018004200DFEE07004C
:104C980008007800D0FF0700E00F50000300320042
:104CA800E600440008007800BDFF0700E800440063
:104CB80008007800BAFF07000000FC004F047800E5
:104CC800000006000002EB00340098004400980041
:104CD80000000600010878001200980023009800E0
:104CE800F8FF0700000006000C00FA00E081200031
:104CF800B1FF0700E00F500006003A00EC805700B3
:104D0800E0812000C6FF0700EC80570020802000CB
:104D180093F307000080FA0000000600889FBE0099
:104D2800804478000144780003022000C20020007B
:104D380081822000E0812000E6FF0700884178009A
:104D4800C2C0B30089407800208020004BF30700E0
:104D58004F04BE00000006000C00FA00881F78000F
:104D6800004278000200780003047800A4F79F004E
:104D7800B1F79F00EC80570004EF07001802BE004F
:104D8800D4BF9F00E5BF9F00EE805700E081200060
:104D9800B4FF07008067220062FD070010002000B2
:104DA8004F0478000080FA000000060080007800B8
:104DB8002080200090F40700000006000001BE00DB
:104DC8002080200031F40700000006002080200029
:104DD8006CF40700000006002080200044F407005F
:104DE80000000600208020001AF3070000000600DB
:104DF80054768000E00F52000F00320060E6200079
:104E0800D7F90700200020004CFA070033FA070002
:104E180060768800542F2000840F5000020036006E
:104E2800CC02A90004003700A42D2000840F5000F4
:104E380001003E00CC02A80000000600C842A800FD
:104E4800E244A800CC02A900C802A9000002EB00B5
:104E580034738800750020004573880054738800F7
:104E68006C0EA9006C2EA8006C4EA9006C6EA900EF
:104E7800001F20006C2EB7006D2EA8001400200023
:104E8800747388005476880003E7200000C1EB00A3
:104E980021002000C06F2200AAFB070000000600C6
:104EA80050768800E00F500001003A00CC02A900BB
:104EB8000000060060E62000A9F907002000200095
:104EC8001EFA070005FA0700FFFD070000000600AC
:104ED80044DE20002640800037408000068ABE005D
:104EE800464080005740800026029800370298000C
:104EF800B6408000C74080004602980057029800DC
:104F0800D6408000E740800066029800770298004B
:104F180000C1B300C3FD070000000600B1FF070091
:104F28000040EB00BFFD070000000600AAFF0700D5
:104F3800206F8800316F880040C0B300B9FD0700BA
:104F480000000600120020000300200040DE2000C0
:104F580096FF0700E00F5000E08F580003003A006A
:104F680000CEB300AFFD070002003700C0C0B30099
:104F7800ACFD07000000060082DE200061DE200094
:104F880091407800E4CDBF00D00007000040EB005E
:104F9800A4FD070000000600000006001400200021
:104FA800D47688000000060069EE0700E00F500084
:104FB80002003A0069EE070055EE07009FFF070060
:104FC8000000060078000700CAF50700100020005E
:104FD800CAF5070012010700ABFC0700110020000A
:104FE8000000EB009BFC07004BFB070050F9070093
:104FF80007010700FD000700DA2EEF000000060099
:10500800617E22005000200035FE0700817D2200CD
:105018006000200032FE0700017D22000000EB0046
:105028002FFE0700217D2200400020002CFE0700F3
:1050380000000600D0EDB700916E88000281FB00E9
:105048000201E80082804000A16E8800D66DEF0062
:1050580000000600F7FF0700FCFD0700000006003F
:10506800F4FF0700FDFD070000000600014178007D
:105078008000780010C0B300EEFF07008FFE070025
:1050880000000600014178008000780010C0B300DD
:10509800E8FF070086FE0700000006008042EB00DC
:1050A800E08F500006003200000378000002EB0099
:1050B800B6C242000402E800848F5000FCFF3E00A4
:1050C8008542EA0005F078000000060021E420008F
:1050D800C0E4200004F70700442EEF00000006009B
:1050E8000002EB0014728800247288000000060099
:1050F800C0E4200046F60700E00F500002003A0026
:10510800F7FF07000300370021E42000C0E4200077
:105118002DF707000000060022C0B30080007800C9
:10512800C0E4200099F60700F1FF07000000060020
:1051380024728000E00F520005003A0063E420006A
:1051480012C0B30021002000A0862200FDFA07004B
:105158001400200024728800000006004402DE00CB
:105168006E0262004548280065027A007F006000F0
:10517800150020000028DD00140A70000000060059
:105188004402DE006E0262004548280065027A008B
:105198007F006000150020000028DD000080EA0084
:1051A800140A60000000060080022000EBFF0700E0
:1051B80000022000E9FF070080042000E7FF070045
:1051C800A0042000E5FF070030062000E3FF0700E9
:1051D80020062000E1FF070010062000DFFF07007F
:1051E80060002000DDFF07000000060043002000EB
:1051F800C201200081C42000E0C32000B5FE0700E2
:105208000000060080007800E0C3200084FE07004C
:105218004CFC070000000600E0C3200078FE0700F1
:1052280000000600E0C320006BFE07000000060037
:105238001C00FA00A0B79F007A82570018000900E6
:10524800315A78009101B100FC805700E0C320007A
:1052580084FE0700F3FF0700E00F50000100320052
:1052680036FC07000080FA0000000600E0C32000BA
:1052780051FE0700000006000AFB07000002780044
:1052880010002000E00F520008003200200020002B
:1052980009FC0700000278000000EB00800F5200B4
:1052A80002003A0030F507000000EB00000006009D
:1052B80053FF0700C7FD07000094220008FC070001
:1052C80040FC07000000EB00000006000800FA00A0
:1052D800889FBE008A1F78008044780001447800C7
:1052E800020578006E805700CDEE07008A0178002D
:1052F8006E815700884078000940780096FE0700C4
:105308004F0578004F04BE000080FA000000060038
:1053180031DE200091407800FFC0600040DE2000B0
:10532800BBF1070000000600206F8000ABF107000A
:1053380000000600A6F10700000006009EF1070025
:105348000000060080CA2000F6FB070000000600E7
:10535800871F7800881F78000500FC00570520008B
:10536800373B8800A80A2000383B880027A6A800F9
:105378004F047800CF037800000006000000FE000C
:105388000040FE0000000600F03FB1000180B100BF
:1053980006003500EE03090000000000403FB100A0
:1053A8000180B100FBFF3D001000B000203FB000BD
:1053B800020035000080090000000000000006001F
:1053C800A4022000256F8000848F52000300320061
:1053D80070C0B30092FB070003003700A1C0B30000
:1053E80080472800A9FC070000000600C1F4070058
:1053F8000000EB0048FF070010C0B30060F407008E
:1054080001CCB30000C4B30044FE0700000006004E
:105418005100200000EC20000400070000000600F6
:1054280081E0A90083E0A90000000600B0768800AA
:10543800C176880000000600DCF4070000000600C2
:020000040001F9
:105000000002EB00A40288004700DD00020420003B
:10501000A14290008582FB00114390004833DD00DF
:10502000914178008383FB00070373000608BB00EF
:105030000588BB000402E800E38040000080E8002F
:10504000820F5200F2FF3A00100024001C010700FA
:10505000000006000002EB00A40288004A00DD0008
:105060000408BB002004240015010700000006000E
:105070005420EF001002BA009082BA001000200005
:10508000E10F420004003A0005C0EA000080FB0086
:105090000000EA004F00DE00000006000002EB0006
:1050A000A40288001403BA001481BA00F50F20008E
:1050B0000501610003002000C011DD000200200096
:1050C00007002000061871000790710024002000DE
:1050D0001403BA001482BA00050262000500200021
:1050E000C022DD00040020000700200086187200A6
:1050F000879072000000060002487800C81BDE009E
:10510000C818DD004813DE000683700016409800C2
:105110004019DE002240980034409800C82BDE0081
:10512000C828DD004823DE00068370004640980052
:10513000402ADE005440980000000600CF0CB0006A
:10514000889FBE008A9FBE008C9FBE008E1F780085
:105150006106B800C066DD000C002000F480570036
:1051600078805700CDFF0700E4A2A800E0A2A900C4
:105170009900070000FA2000010020006011B8002B
:10518000D90007000002EB0084BF9F000E0C200036
:10519000A9CAB3008FBA9700432CDD000500780040
:1051A000ACFF070004602000050020000C05420051
:1051B0008D854A008E01780082F22F000F01410098
:1051C0000C00BE00A8000700E00F540008003A00E1
:1051D0006FB29700FFB297004FB19700DFB1970011
:1051E00080F22F000F004000C3FF070008003700C7
:1051F000E20F540006003A00896F9E00996F9E00EE
:10520000A96F9E00B96F9E00C96F9E00D96F9E0066
:1052100081F22F008F8040000800780078FF07009F
:105220000804E8000C0CB0000D80B0008A0F560096
:105230008B8F5E00DFFF3A008FBA97008502E8008F
:1052400085BF9F00A4022000848F5200D1FF3A0046
:105250004F0778004F06BE004F05BE004F04BE004A
:10526000CF0CB10000000600004001000000060065
:10527000889FBE008A9FBE008C1F7800D862A8005D
:1052800000A82100610020006011B800960007000E
:10529000DA62AB0012003A0000A026008101200073
:1052A0006011B80090000700DA62AB0016003A0007
:1052B000DA62AB00FEFF3200DC62A900D862A9000E
:1052C00000A82100610020006011B80086000700DE
:1052D0003000200099FF0700D862A8000A003700BC
:1052E000D4BC2A0005408000848F520006003A009A
:1052F0000028EF00DC62A900D862A900200020008D
:105300008EFF0700D862A8000010200058FF070099
:10531000E00F50000200320000202000D2FF070002
:105320007CFF2F0008242400F90020006055B800FD
:10533000DC62A900C41680004322DE000482EA0079
:10534000610262004322DD00C6168000860266000C
:1053500004827200C41688000800BE000A01BE0064
:1053600061000700F2FF37004022AB00FEFF3A0069
:105370000080FB00401288004002AB00FEFF3200BC
:105380004012800000000600889FBE006F8260000F
:1053900005002000C024DD00080020006102B800E4
:1053A00004047400858474004048DE00010020007D
:1053B000EDFF0700484ADD004840DE0000007200B3
:1053C000C848DE00E8FF070008407800E6FF070055
:1053D0004F04BE00000006004342A90042A2A800FC
:1053E00042C2A80040C2A900300020004222B700FB
:1053F000141280000420A1008401B300141288005C
:1054000041E2A800F102A900ED04A900F122A800E0
:10541000ED24A900F0C2A900ECC4A900F0E2A900A3
:10542000ECE4A90004FC2F004635800086026200EF
:10543000B501B30045358800F50F2C00A636800075
:10544000868262000670200086827200A53688007F
:10545000D5368000050262000430A000D4368800F2
:10546000F502A80000000600889FBE008A9FBE00CB
:105470000004BE000205780083054500F502A9007E
:1054800030C0B300B8FF07000800BE00BEFF070031
:105490008B0F5500060032000044EB0008407800F6
:1054A000B1FF0700005D78008A8F5500FBFF3A00CE
:1054B000F502A8004F05BE004F04BE000000060024
:1054C0000600FC00003B880050052000303B8800AF
:1054D000A00A2000303B880061E7A800000000001F
:1054E0000000000000000600F03FB1000180B100A4
:1054F00006003500EE03090000000000403FB10047
:105500000180B100FBFF3D001000B000203FB00063
:1055100002003500008009000000000000000600C5
:105520002F8020000E7F22000E0188002100200025
:105530000100E0000200320011002000910188000B
:10554000000020000000E000020032000000020025
:105550000000000038A90200000000000040DA004E
:0C5560000000FE000040DA000000FE0029
:1057F0007FFF0000FFF300008F780000DF3F000014
:00000001FF
